:020000040800F2
:100000008806002061020008690200086B020008EF
:100010006D0200086F020008710200080000000075
:100020000000000000000000000000007302000853
:10003000750200080000000077020008790200083D
:100040007B0200087B0200087B0200087B0200089C
:100050007B0200087B0200087B0200087B0200088C
:100060007B0200087B0200087B0200087B0200087C
:100070007B0200087B0200087B0200087B0200086C
:100080007B0200087B0200087B02000800000000E1
:100090000000000000000000000000007B020008DB
:1000A0007B0200087B0200087B0200087B0200083C
:1000B0007B0200087B0200087B0200087B0200082C
:1000C0007B0200087B0200087B0200087B0200081C
:1000D0007B0200087B0200087B0200080000000091
:1000E0007B0200087B0200087B0200080000000081
:1000F0000000000000000000000000007B0200087B
:10010000000000007B0200087B0200087B02000860
:1001100000000000000000000000000000000000DF
:100120007B0200087B0200087B0200087B020008BB
:100130007B0200080000000000000000000000003A
:100140000000000000000000000000007B0200082A
:100150007B0200087B0200087B0200087B0200088B
:100160007B0200087B020008000000000000000085
:10017000000000000000000000000000000000007F
:10018000000000007B0200080000000000000000EA
:100190007B02000800F002F800F052F814A696E87E
:1001A000000CB244B344DA4501D100F049F8BAE892
:1001B0000F000FA696E83000A5EB040504EB060738
:1001C000AAEB0704A7F101074FEA15154FEA34140B
:1001D000A4F10104AC4201D300F032F813F0010F96
:1001E00018BFFB1A43F0010300F001F8DBE71847E2
:1001F0001005000030050000103A24BF78C878C10F
:10020000FAD8520724BF30C830C144BF04680C601C
:1002100070470000704700000023002400250026DE
:10022000103A28BF78C1FBD8520728BF30C148BF59
:100230000B6070471FB500F055FA1FBD10B510BD1B
:1002400000F058F81146FFF7F5FF00F067F900F0ED
:1002500076F803B4FFF7F2FF03BC00F07DF800006E
:100260000948804709480047FEE7FEE7FEE7FEE74A
:10027000FEE7FEE7FEE7FEE7FEE7FEE70448054986
:10028000054A064B70470000690300089501000805
:1002900088000020880600208802002088020020B4
:1002A0004FF0000200B5134694469646203922BF0F
:1002B000A0E80C50A0E80C50B1F12001BFF4F7AF5A
:1002C000090728BFA0E80C5048BF0CC05DF804EB3C
:1002D000890028BF40F8042B08BF704748BF20F8AA
:1002E000022B11F0804F18BF00F8012B70477047A8
:1002F00070477047754600F02BF8AE46050069461A
:10030000534620F00700854618B020B5FFF7B6FF2A
:10031000BDE820404FF000064FF000074FF0000806
:100320004FF0000BAC46ACE8C009ACE8C009ACE843
:10033000C009ACE8C00921F007018D46704710B52F
:100340000446AFF300802046BDE81040FFF781BFB0
:10035000004870472800002001491820ABBEFEE786
:1003600026000200704700004EF68851CEF20001D0
:10037000086840F4700008607047000081B00020F9
:100380000090FFE700984AF21F11C0F2070188426F
:1003900005DCFFE7FFE7009801300090F2E701B0CD
:1003A0007047000081B040F61000C4F202000068FF
:1003B000C007A0BBFFE740F61000C4F202000068CF
:1003C0000007002803D4FFE701200090A3E040F6D7
:1003D0001000C4F202000068C006002803D4FFE742
:1003E0000420009097E040F61000C4F2020000687C
:1003F0008006002803D4FFE7072000908BE040F63A
:100400001000C4F2020000684006002803D4FFE791
:100410000A2000907FE0FFE7FFE7FFE77BE040F680
:100420001000C4F2020000688007002834D4FFE7FF
:1004300040F61000C4F2020000680007002803D450
:10044000FFE70220009066E040F61000C4F20200D0
:100450000068C006002803D4FFE7052000905AE09A
:1004600040F61000C4F2020000688006002803D4A1
:10047000FFE7082000904EE040F61000C4F20200B2
:1004800000684006002803D4FFE70020009042E007
:10049000FFE7FFE7FFE73DE040F61000C4F202008F
:1004A00000684007002834D4FFE740F61000C4F28B
:1004B000020000680007002803D4FFE70320009033
:1004C00029E040F61000C4F202000068C0060028CF
:1004D00003D4FFE7062000901DE040F61000C4F2B0
:1004E000020000688006002803D4FFE7092000907E
:1004F00011E040F61000C4F2020000684006002837
:1005000003D4FFE70B20009005E0FFE7FFE7FFE7DC
:10051000FFE7FFE7FFE7009801B0704780B596B0AE
:100520000020159001A85021FFF7BAFE43F63001D4
:10053000C4F202010520086040F20041C4F2020149
:10054000086841F255521043086040F60001C4F2B9
:100550000201086810430860FFE7FFE7FFF722FF8A
:1005600000F00AF8FFF70AFF40F21441C4F202015A
:100570004FF0FF300860F1E780B582B0019001983C
:1005800060B9FFE740F20000C2F200000068C0431B
:1005900040F21441C4F20201086098E00198012879
:1005A0000CD1FFE740F20000C2F200004068C043F7
:1005B00040F21441C4F20201086087E00198022869
:1005C0000CD1FFE740F20000C2F200008068C04397
:1005D00040F21441C4F20201086076E00198032859
:1005E0000CD1FFE740F20000C2F20000C068C04337
:1005F00040F21441C4F20201086065E00198042849
:100600000CD1FFE740F20000C2F200000069C043D5
:1006100040F21441C4F20201086054E00198052838
:100620000CD1FFE740F20000C2F200004069C04375
:1006300040F21441C4F20201086043E00198062828
:100640000CD1FFE740F20000C2F200008069C04315
:1006500040F21441C4F20201086032E00198072818
:100660000CD1FFE740F20000C2F20000C069C043B5
:1006700040F21441C4F20201086021E00198082808
:100680000CD1FFE740F20000C2F20000006AC04354
:1006900040F21441C4F20201086010E001980928F8
:1006A0000CD1FFE740F20000C2F20000406AC043F4
:1006B00040F21441C4F202010860FFE7FFE7FFE7E0
:1006C000FFE7FFE7FFE7FFE7FFE7FFE7FFE7FFF7EA
:1006D00055FE40F21441C4F202014FF0FF300860B1
:1006E00002B080BDF1EE100A4FF6FF71C0F2C031CA
:1006F00020EA010040F04070E1EE100A704700006F
:10070000200700080000002028000000F801000871
:1007100048070008280000206006000018020008B2
:100720003F000000060000005B0000004F000000DA
:10073000660000006D0000007D0000000700000062
:080740007F0000006F000000C3
:040000050800019559
:00000001FF
