:020000040800F2
:1000000060060020450200084D0200084F0200086B
:1000100051020008530200085502000800000000C9
:10002000000000000000000000000000570200086F
:1000300059020008000000005B0200085D02000891
:100040005F0200085F0200085F0200085F0200080C
:100050005F0200085F0200085F0200085F020008FC
:100060005F0200085F0200085F0200085F020008EC
:100070005F0200085F0200085F0200085F020008DC
:100080005F0200085F0200085F0200080000000035
:100090000000000000000000000000005F020008F7
:1000A0005F0200085F0200085F0200085F020008AC
:1000B0005F0200085F0200085F0200085F0200089C
:1000C0005F0200085F0200085F0200085F0200088C
:1000D0005F0200085F0200085F02000800000000E5
:1000E0005F0200085F0200085F02000800000000D5
:1000F0000000000000000000000000005F02000897
:10010000000000005F0200085F0200085F020008B4
:1001100000000000000000000000000000000000DF
:100120005F0200085F0200085F0200085F0200082B
:100130005F02000800000000000000000000000056
:100140000000000000000000000000005F02000846
:100150005F0200085F0200085F0200085F020008FB
:100160005F0200085F0200080000000000000000BD
:10017000000000000000000000000000000000007F
:10018000000000005F020008000000000000000006
:100190005F02000800F002F800F044F814A696E8A8
:1001A000000CB244B344DA4501D100F03BF8BAE8A0
:1001B0000F000FA696E83000A5EB040504EB060738
:1001C000AAEB0704A7F101074FEA15154FEA34140B
:1001D000A4F10104AC4201D300F024F813F0010FA4
:1001E00018BFFB1A43F0010300F001F8DBE71847E2
:1001F0004C0600005C06000070470000002300244D
:1002000000250026103A28BF78C1FBD8520728BF26
:1002100030C148BF0B6070471FB500F001FB1FBD28
:1002200010B510BD00F031F81146FFF7F5FF00F0F2
:1002300047F900F04FF803B4FFF7F2FF03BC00F0FA
:1002400057F800000948804709480047FEE7FEE7E5
:10025000FEE7FEE7FEE7FEE7FEE7FEE7FEE7FEE776
:1002600004480549054A064B704700007904000818
:100270009501000860000020600600206002002058
:1002800060020020704770477047754600F02CF8F8
:10029000AE4605006946534620F00700854618B073
:1002A00020B5FFF7DDFFBDE820404FF000064FF01E
:1002B00000074FF000084FF0000BAC46ACE8C00957
:1002C000ACE8C009ACE8C009ACE8C00921F00701FE
:1002D0008D46704710B50446AFF300802046BDE858
:1002E0001040FFF7A8BF0000004870470000002042
:1002F00001491820ABBEFEE726000200704700004F
:1003000043F63001C4F20201086840F005000860BD
:100310000022C4F20202106800201060116841F04F
:10032000553111600422C4F2020211684FF6FF73C6
:10033000994311600822C4F202021168106011682A
:1003400041F05531116040F60001C4F202010A6823
:100350000860086840F01500086040F60401C4F227
:100360000201086820F00700086040F60801C4F2A6
:100370000201086820F03F000860086840F015009E
:10038000086040F60C01C4F2020108686FF39F2078
:10039000086008684AF68022CAF6AA22104308605C
:1003A0007047000080B584B08DF80F009DF80F00F5
:1003B000ADF80C00BDF80C0020F47060ADF80C0036
:1003C000BDF80C0040F4A060ADF80C00BDF80C00C6
:1003D0001421C4F20201019108606420029000F02F
:1003E00055F8019A0298BDF80C1021F48071ADF80F
:1003F0000C10BDF80C10116000F048F804B080BD7E
:1004000080B582B08DF807009DF80700ADF80400B4
:10041000BDF8040020F47060ADF80400BDF80400DD
:1004200040F48070ADF80400BDF804001421C4F25B
:10043000020100910860642000F028F80099BDF8DE
:10044000040020F48070ADF80400BDF804000860DA
:100450004FF47A7000F01AF802B080BD81B040F617
:100460001000C4F202000068C0F3C300ADF802003F
:10047000BDF8020001B070474EF68851CEF200017F
:10048000086840F4700008607047000082B0019076
:1004900000200090FFE700980199884205DAFFE705
:1004A000FFE7009801300090F5E702B070470000C8
:1004B00080B5FFE7FFF7D2FF08B1FFE7FAE780BD9D
:1004C00080B58CB000200B90FFF71AFF42F26560F8
:1004D000ADF8280047F27020C6F66950099046F63C
:1004E0006950C2F26560CDF81F0047F24E00C6F6B3
:1004F0007210079046F27010C6F66C1006906920D4
:100500008DF8140047F24E00C6F661400490FFE7F4
:1005100000F05CF93A208DF80E0046F66E70ADF8EA
:100520000C0003A8032100F05FF900F0DFF8ADF83C
:100530000A0000200190FFE7BDF80A000A281BD03E
:10054000FFE730208DF80300BDF80A109DF8030086
:1005500008448DF803009DF80300FFF723FF01987E
:1005600000EB8001BDF80A0000EB4100019000F0B3
:10057000BDF8ADF80A00DFE7C020FFF741FF0198A2
:1005800000F062F828B1FFE709A8062100F02CF975
:1005900004E007A8072100F027F9FFE7019800F021
:1005A0001BF828B9FFE706A8042100F01DF904E0B4
:1005B00004A8052100F018F9FFE70020ADF80A00B3
:1005C000FFE7BDF80A000A2805D0FFE700F08EF823
:1005D000ADF80A00F5E79BE784B002900020019097
:1005E00002980090FFE7029801281FDBFFE70198BF
:1005F00000EB8000400001900198029A46F267618A
:10060000C6F2666152FB01FC4FEAAC0303EBDC73FC
:1006100003EB8303A2EB430210440190029850FBCA
:1006200001F1881000EBD1700290DCE7009801998D
:10063000884203D1FFE70020039002E001200390ED
:10064000FFE7039804B0704783B001900198012838
:1006500003DCFFE70020029044E00198032803DC5C
:10066000FFE7012002903DE0019800EBD07121F0FE
:100670000101401A78B1FFE701984AF6AA22C2F6B2
:10068000AA224AF6AB21CAF6AA2100FB0120B0F14A
:10069000553F03D2FFE70020029023E005200090A1
:1006A000FFE7009840430199884218DCFFE7019A70
:1006B000009992FBF1F000FB112048B1FFE7019A8D
:1006C0000098811C92FBF1F000FB112018B9FFE7A4
:1006D0000020029006E0009806300090E1E701203B
:1006E0000290FFE7029803B07047000080B588B021
:1006F0000020ADF81E000421C0F2030106914FF066
:10070000021105914FF0011104910390FFE7039945
:1007100004A8019030F8210040F61401C4F202014F
:1007200008600A20FFF7B2FE0198039900EB8100F0
:100730004088ADF81E00FFF791FEADF80A00BDF845
:100740000A00012801D1FFE73AE0BDF80A000228BB
:1007500006D1FFE7BDF81E000330ADF81E002FE004
:10076000BDF80A00042806D1FFE7BDF81E000630D8
:10077000ADF81E0024E0BDF80A0008280ED1FFE7FE
:10078000BDF81E00022804D1FFE70020ADF81E00CE
:1007900003E00A20ADF81E00FFE711E0FFE7FFE7E6
:1007A000FFE70398013045F25651C5F2555150FB11
:1007B00001F101EBD17101EB4101401A0390A6E771
:1007C000FFF776FEBDF81E0008B080BD80B538206A
:1007D000FFF716FE0E20FFF713FE0120FFF710FEB5
:1007E0008020FFF70DFE80BD80B584B0039002919C
:1007F00000200190FFE70198029988420EDAFFE796
:1008000003980199405CFFF7CDFD4FF47A70FFF734
:100810003DFEFFE7019801300190ECE704B080BD98
:10082000F1EE100A4FF6FF71C0F2C03120EA01006C
:1008300040F04070E1EE100A704700004C080008DC
:0C0840000000002060060000FC01000821
:040000050800019559
:00000001FF
