:020000040800F2
:100000008806002061020008690200086B020008EF
:100010006D0200086F020008710200080000000075
:100020000000000000000000000000007302000853
:10003000750200080000000077020008790200083D
:100040007B0200087B0200087B0200087B0200089C
:100050007B0200087B0200087B0200087B0200088C
:100060007B0200087B0200087B0200087B0200087C
:100070007B0200087B0200087B0200087B0200086C
:100080007B0200087B0200087B02000800000000E1
:100090000000000000000000000000007B020008DB
:1000A0007B0200087B0200087B0200087B0200083C
:1000B0007B0200087B0200087B0200087B0200082C
:1000C0007B0200087B0200087B0200087B0200081C
:1000D0007B0200087B0200087B0200080000000091
:1000E0007B0200087B0200087B0200080000000081
:1000F0000000000000000000000000007B0200087B
:10010000000000007B0200087B0200087B02000860
:1001100000000000000000000000000000000000DF
:100120007B0200087B0200087B0200087B020008BB
:100130007B0200080000000000000000000000003A
:100140000000000000000000000000007B0200082A
:100150007B0200087B0200087B0200087B0200088B
:100160007B0200087B020008000000000000000085
:10017000000000000000000000000000000000007F
:10018000000000007B0200080000000000000000EA
:100190007B02000800F002F800F052F814A696E87E
:1001A000000CB244B344DA4501D100F049F8BAE892
:1001B0000F000FA696E83000A5EB040504EB060738
:1001C000AAEB0704A7F101074FEA15154FEA34140B
:1001D000A4F10104AC4201D300F032F813F0010F96
:1001E00018BFFB1A43F0010300F001F8DBE71847E2
:1001F00084050000A4050000103A24BF78C878C127
:10020000FAD8520724BF30C830C144BF04680C601C
:1002100070470000704700000023002400250026DE
:10022000103A28BF78C1FBD8520728BF30C148BF59
:100230000B6070471FB500F090FA1FBD10B510BDE0
:1002400000F058F81146FFF7F5FF00F0BFF800F096
:1002500076F803B4FFF7F2FF03BC00F07DF800006E
:100260000948804709480047FEE7FEE7FEE7FEE74A
:10027000FEE7FEE7FEE7FEE7FEE7FEE70448054986
:10028000054A064B70470000690300089501000805
:1002900088000020880600208802002088020020B4
:1002A0004FF0000200B5134694469646203922BF0F
:1002B000A0E80C50A0E80C50B1F12001BFF4F7AF5A
:1002C000090728BFA0E80C5048BF0CC05DF804EB3C
:1002D000890028BF40F8042B08BF704748BF20F8AA
:1002E000022B11F0804F18BF00F8012B70477047A8
:1002F00070477047754600F02BF8AE46050069461A
:10030000534620F00700854618B020B5FFF7B6FF2A
:10031000BDE820404FF000064FF000074FF0000806
:100320004FF0000BAC46ACE8C009ACE8C009ACE843
:10033000C009ACE8C00921F007018D46704710B52F
:100340000446AFF300802046BDE81040FFF781BFB0
:10035000004870472800002001491820ABBEFEE786
:1003600026000200704700004EF68851CEF20001D0
:10037000086840F4700008607047000081B00020F9
:100380000090FFE7009848F27F41C0F21E018842CA
:1003900005DCFFE7FFE7009801300090F2E701B0CD
:1003A0007047000081B000200090FFE700984AF2FB
:1003B0001F11C0F20701884205DCFFE7FFE7009844
:1003C00001300090F2E701B07047000080B59AB0AC
:1003D00000200090199005A85021FFF761FF0098B8
:1003E00043F63002C4F202020521116040F6000219
:1003F000C4F20202116841F2555319431160002101
:10040000C4F202010A680860FFE70020049001219D
:1004100003910290FFE7029813281CDCFFE7FFE737
:10042000039801300390039800F08EF801280CD156
:10043000FFE7039800F050F8012806D1FFE7039882
:10044000029A05A941F8220000E0E9E7FFE70298D7
:1004500001300290DFE7FFE7049905A850F821007A
:100460000190019800F0A6F8FFF788FF1020C4F271
:10047000020000688006002812D4FFE704980128D3
:100480000DDBFFE70498411E049105A850F82100F8
:100490000190019800F08EF8FFF770FFFFE71AE077
:1004A0001020C4F2020000684006002812D4FFE7C2
:1004B000049863280DDCFFE70498411C049105A80B
:1004C00050F821000190019800F074F8FFF756FFF2
:1004D000FFE7FFE7FFE7BFE785B00390002001904B
:1004E00003980090FFE7039801281EDBFFE70398BD
:1004F00046F26761C6F2666150FB01F39A1002EBA7
:10050000D37202EB8202A0EB42000290019800EB52
:100510008002029800EB42000190039850FB01F129
:10052000881000EBD1700390DDE7009801998842B4
:1005300003D1FFE70120049002E000200490FFE7D0
:10054000049805B07047000084B00290002001902C
:10055000029820B1FFE70298012803D1FFE70120AC
:100560000190FFE702200090FFE70098029901EB5D
:10057000D171B0EB610F10DCFFE7029A009992FB9A
:10058000F1F000FB112018B9FFE70120019004E011
:10059000FFE7009801300090E7E7019818B9FFE7FE
:1005A0000120039002E000200390FFE7039804B0CD
:1005B0007047000080B582B00190FFE701980128E4
:1005C000C0F2C980FFE7019846F26761C6F2666132
:1005D00050FB01F39A1002EBD37202EB8202A0EB04
:1005E00042000090019850FB01F1881000EBD1709F
:1005F0000190009860B9FFE740F20000C2F20000ED
:100600000068C04340F61401C4F20201086098E09B
:10061000009801280CD1FFE740F20000C2F2000070
:100620004068C04340F61401C4F20201086087E04C
:10063000009802280CD1FFE740F20000C2F200004F
:100640008068C04340F61401C4F20201086076E0FD
:10065000009803280CD1FFE740F20000C2F200002E
:10066000C068C04340F61401C4F20201086065E0AE
:10067000009804280CD1FFE740F20000C2F200000D
:100680000069C04340F61401C4F20201086054E05E
:10069000009805280CD1FFE740F20000C2F20000EC
:1006A0004069C04340F61401C4F20201086043E00F
:1006B000009806280CD1FFE740F20000C2F20000CB
:1006C0008069C04340F61401C4F20201086032E0C0
:1006D000009807280CD1FFE740F20000C2F20000AA
:1006E000C069C04340F61401C4F20201086021E071
:1006F000009808280CD1FFE740F20000C2F2000089
:10070000006AC04340F61401C4F20201086010E020
:10071000009809280CD1FFE740F20000C2F2000067
:10072000406AC04340F61401C4F202010860FFE7CA
:10073000FFE7FFE7FFE7FFE7FFE7FFE7FFE7FFE789
:10074000FFE7FFF72FFE40F61401C4F202014FF05D
:10075000FF30086032E702B080BDF1EE100A4FF6BC
:10076000FF71C0F2C03120EA010040F04070E1EEBC
:10077000100A7047980700080000002028000000B9
:10078000F8010008C00700082800002060060000EB
:1007900018020008000000003F00000006000000F2
:1007A0005B0000004F000000660000006D000000CC
:1007B0007D000000070000007F0000006F000000C7
:040000050800019559
:00000001FF
